{
  "abi": [
    {
      "type": "constructor",
      "inputs": [
        {
          "name": "_counter",
          "type": "uint256",
          "internalType": "uint256"
        }
      ],
      "stateMutability": "nonpayable"
    },
    {
      "type": "function",
      "name": "changeCounter",
      "inputs": [
        {
          "name": "_counter",
          "type": "uint256",
          "internalType": "uint256"
        }
      ],
      "outputs": [],
      "stateMutability": "nonpayable"
    },
    {
      "type": "function",
      "name": "changeName",
      "inputs": [
        {
          "name": "_name",
          "type": "string",
          "internalType": "string"
        }
      ],
      "outputs": [],
      "stateMutability": "nonpayable"
    },
    {
      "type": "function",
      "name": "counter",
      "inputs": [],
      "outputs": [
        {
          "name": "",
          "type": "uint256",
          "internalType": "uint256"
        }
      ],
      "stateMutability": "view"
    },
    {
      "type": "function",
      "name": "increment",
      "inputs": [],
      "outputs": [],
      "stateMutability": "nonpayable"
    },
    {
      "type": "function",
      "name": "name",
      "inputs": [],
      "outputs": [
        {
          "name": "",
          "type": "string",
          "internalType": "string"
        }
      ],
      "stateMutability": "view"
    },
    {
      "type": "function",
      "name": "read",
      "inputs": [],
      "outputs": [
        {
          "name": "",
          "type": "uint256",
          "internalType": "uint256"
        }
      ],
      "stateMutability": "view"
    }
  ],
  "bytecode": {
    "object": "0x608060405234801561001057600080fd5b5060405161064438038061064483398101604081905261002f91610066565b60008190556040805180820190915260078152664e6f7468696e6760c81b602082015260019061005f908261011e565b50506101dd565b60006020828403121561007857600080fd5b5051919050565b634e487b7160e01b600052604160045260246000fd5b600181811c908216806100a957607f821691505b6020821081036100c957634e487b7160e01b600052602260045260246000fd5b50919050565b601f82111561011957600081815260208120601f850160051c810160208610156100f65750805b601f850160051c820191505b8181101561011557828155600101610102565b5050505b505050565b81516001600160401b038111156101375761013761007f565b61014b816101458454610095565b846100cf565b602080601f83116001811461018057600084156101685750858301515b600019600386901b1c1916600185901b178555610115565b600085815260208120601f198616915b828110156101af57888601518255948401946001909101908401610190565b50858210156101cd5787850151600019600388901b60f8161c191681555b5050505050600190811b01905550565b610458806101ec6000396000f3fe608060405234801561001057600080fd5b50600436106100625760003560e01c806306fdde03146100675780635353a2d81461008557806357de26a41461009a57806361bc221a146100ac578063c519fdc5146100b5578063d09de08a146100c8575b600080fd5b61006f6100d0565b60405161007c9190610184565b60405180910390f35b6100986100933660046101e8565b61015e565b005b6000545b60405190815260200161007c565b61009e60005481565b6100986100c3366004610299565b600055565b61009861016e565b600180546100dd906102b2565b80601f0160208091040260200160405190810160405280929190818152602001828054610109906102b2565b80156101565780601f1061012b57610100808354040283529160200191610156565b820191906000526020600020905b81548152906001019060200180831161013957829003601f168201915b505050505081565b600161016a828261033b565b5050565b60008054908061017d836103fb565b9190505550565b600060208083528351808285015260005b818110156101b157858101830151858201604001528201610195565b506000604082860101526040601f19601f8301168501019250505092915050565b634e487b7160e01b600052604160045260246000fd5b6000602082840312156101fa57600080fd5b813567ffffffffffffffff8082111561021257600080fd5b818401915084601f83011261022657600080fd5b813581811115610238576102386101d2565b604051601f8201601f19908116603f01168101908382118183101715610260576102606101d2565b8160405282815287602084870101111561027957600080fd5b826020860160208301376000928101602001929092525095945050505050565b6000602082840312156102ab57600080fd5b5035919050565b600181811c908216806102c657607f821691505b6020821081036102e657634e487b7160e01b600052602260045260246000fd5b50919050565b601f82111561033657600081815260208120601f850160051c810160208610156103135750805b601f850160051c820191505b818110156103325782815560010161031f565b5050505b505050565b815167ffffffffffffffff811115610355576103556101d2565b6103698161036384546102b2565b846102ec565b602080601f83116001811461039e57600084156103865750858301515b600019600386901b1c1916600185901b178555610332565b600085815260208120601f198616915b828110156103cd578886015182559484019460019091019084016103ae565b50858210156103eb5787850151600019600388901b60f8161c191681555b5050505050600190811b01905550565b60006001820161041b57634e487b7160e01b600052601160045260246000fd5b506001019056fea2646970667358221220a3c2aa5815d01e1e26e5e76c1ea9bfe64a82361353de06c60936dac540b06a6864736f6c63430008150033",
    "linkReferences": {}
  },
  "methodIdentifiers": {
    "changeCounter(uint256)": "c519fdc5",
    "changeName(string)": "5353a2d8",
    "counter()": "61bc221a",
    "increment()": "d09de08a",
    "name()": "06fdde03",
    "read()": "57de26a4"
  },
  "id": 20
}