{"abi":[{"type":"constructor","inputs":[{"name":"_counter","type":"uint256","internalType":"uint256"}],"stateMutability":"nonpayable"},{"type":"function","name":"acceptStruct","inputs":[{"name":"nothingStruct","type":"tuple","internalType":"struct Nothing.NothingStruct","components":[{"name":"a","type":"uint256","internalType":"uint256"},{"name":"b","type":"uint256","internalType":"uint256"}]}],"outputs":[],"stateMutability":"nonpayable"},{"type":"function","name":"changeCounter","inputs":[{"name":"_counter","type":"uint256","internalType":"uint256"}],"outputs":[],"stateMutability":"nonpayable"},{"type":"function","name":"changeName","inputs":[{"name":"_name","type":"string","internalType":"string"}],"outputs":[],"stateMutability":"nonpayable"},{"type":"function","name":"counter","inputs":[],"outputs":[{"name":"","type":"uint256","internalType":"uint256"}],"stateMutability":"view"},{"type":"function","name":"increment","inputs":[],"outputs":[],"stateMutability":"nonpayable"},{"type":"function","name":"name","inputs":[],"outputs":[{"name":"","type":"string","internalType":"string"}],"stateMutability":"view"},{"type":"function","name":"read","inputs":[],"outputs":[{"name":"","type":"uint256","internalType":"uint256"}],"stateMutability":"view"}],"bytecode":{"object":"0x608060405234801561001057600080fd5b506040516106f93803806106f983398101604081905261002f91610066565b60008190556040805180820190915260078152664e6f7468696e6760c81b602082015260019061005f908261011e565b50506101dd565b60006020828403121561007857600080fd5b5051919050565b634e487b7160e01b600052604160045260246000fd5b600181811c908216806100a957607f821691505b6020821081036100c957634e487b7160e01b600052602260045260246000fd5b50919050565b601f82111561011957600081815260208120601f850160051c810160208610156100f65750805b601f850160051c820191505b8181101561011557828155600101610102565b5050505b505050565b81516001600160401b038111156101375761013761007f565b61014b816101458454610095565b846100cf565b602080601f83116001811461018057600084156101685750858301515b600019600386901b1c1916600185901b178555610115565b600085815260208120601f198616915b828110156101af57888601518255948401946001909101908401610190565b50858210156101cd5787850151600019600388901b60f8161c191681555b5050505050600190811b01905550565b61050d806101ec6000396000f3fe608060405234801561001057600080fd5b506004361061007d5760003560e01c806361bc221a1161005b57806361bc221a146100c7578063a74aae25146100d0578063c519fdc5146100e3578063d09de08a146100f657600080fd5b806306fdde03146100825780635353a2d8146100a057806357de26a4146100b5575b600080fd5b61008a6100fe565b60405161009791906101c9565b60405180910390f35b6100b36100ae36600461022d565b61018c565b005b6000545b604051908152602001610097565b6100b960005481565b6100b36100de3660046102de565b61019c565b6100b36100f136600461032d565b600055565b6100b36101b3565b6001805461010b90610346565b80601f016020809104026020016040519081016040528092919081815260200182805461013790610346565b80156101845780601f1061015957610100808354040283529160200191610184565b820191906000526020600020905b81548152906001019060200180831161016757829003601f168201915b505050505081565b600161019882826103cf565b5050565b602081015181516101ad91906104a5565b60005550565b6000805490806101c2836104be565b9190505550565b600060208083528351808285015260005b818110156101f6578581018301518582016040015282016101da565b506000604082860101526040601f19601f8301168501019250505092915050565b634e487b7160e01b600052604160045260246000fd5b60006020828403121561023f57600080fd5b813567ffffffffffffffff8082111561025757600080fd5b818401915084601f83011261026b57600080fd5b81358181111561027d5761027d610217565b604051601f8201601f19908116603f011681019083821181831017156102a5576102a5610217565b816040528281528760208487010111156102be57600080fd5b826020860160208301376000928101602001929092525095945050505050565b6000604082840312156102f057600080fd5b6040516040810181811067ffffffffffffffff8211171561031357610313610217565b604052823581526020928301359281019290925250919050565b60006020828403121561033f57600080fd5b5035919050565b600181811c9082168061035a57607f821691505b60208210810361037a57634e487b7160e01b600052602260045260246000fd5b50919050565b601f8211156103ca57600081815260208120601f850160051c810160208610156103a75750805b601f850160051c820191505b818110156103c6578281556001016103b3565b5050505b505050565b815167ffffffffffffffff8111156103e9576103e9610217565b6103fd816103f78454610346565b84610380565b602080601f831160018114610432576000841561041a5750858301515b600019600386901b1c1916600185901b1785556103c6565b600085815260208120601f198616915b8281101561046157888601518255948401946001909101908401610442565b508582101561047f5787850151600019600388901b60f8161c191681555b5050505050600190811b01905550565b634e487b7160e01b600052601160045260246000fd5b808201808211156104b8576104b861048f565b92915050565b6000600182016104d0576104d061048f565b506001019056fea2646970667358221220020a2d6e320bf84563f4f09e91863aec7dca2ba6c947f208b1e16d877512485564736f6c63430008150033","linkReferences":{}},"methodIdentifiers":{"acceptStruct((uint256,uint256))":"a74aae25","changeCounter(uint256)":"c519fdc5","changeName(string)":"5353a2d8","counter()":"61bc221a","increment()":"d09de08a","name()":"06fdde03","read()":"57de26a4"},"id":66}